:100000000C9463000C948B000C948B000C948B006C
:100010000C948B000C948B000C948B000C948B0034
:100020000C948B000C948B000C948B000C943B0272
:100030000C948B000C948B000C948B000C948B0014
:100040000C9459040C948B000C9472050C948B0046
:100050000C948B000C948B000C948B000C948B00F4
:100060000C948B000C948B000000000024002700EF
:100070002A0000000000250028002B0000000000DE
:1000800023002600290004040404040404040202DA
:100090000202020203030303030301020408102007
:1000A0004080010204081020010204081020000012
:1000B0000007000201000003040600000000000029
:1000C0000000F802F70611241FBECFEFD4E0DEBF18
:1000D000CDBF11E0A0E0B1E0E8E3F2E102C005909D
:1000E0000D92AE30B107D9F711E0AEE0B1E001C03A
:1000F0001D92A03EB107E1F710E0C6ECD0E004C0CD
:100100002297FE010E941609C23CD107C9F70E943E
:1001100052040C941A090C940000FC0180910E0109
:100120008C3090F480838F5F80930E01815090E03B
:10013000FC01EE0FFF1FE80FF91FE15FFE4F88EB98
:100140009BE09283818308958FEF80830895FC0163
:1001500020812C30C0F58181992787FD909548E852
:1001600050E0481B590B440F551F440F551F64178F
:10017000750784F08281992787FD909548E552E0C4
:10018000481B590B440F551F440F551F6417750723
:100190000CF4AB01CA01AA2797FDA095BA2F0697C8
:1001A000A109B109880F991FAA1FBB1F4FB7F89467
:1001B00030E0F901EE0FFF1FE20FF31FE15FFE4F8A
:1001C000928381834FBF0895AF92BF92CF92DF9207
:1001D000EF92FF920F931F93DC018C918F3F19F4E4
:1001E00020E030E00EC090E0FC01EE0FFF1FE80FB2
:1001F000F91FE15FFE4F21813281369527952A5FF5
:100200003F4F00D000D02F5F3F4FB901882777FDC7
:100210008095982F1196EC911197FF27E7FDF095A7
:1002200028E830E02E1B3F0B220F331F220F331F15
:10023000442737FD4095542F1296EC91FF27E7FD98
:10024000F095A8E5EA2EA2E0FA2EEE1AFF0AEE0CCF
:10025000FF1CEE0CFF1C0027F7FC0095102FE4EBB1
:10026000AE2EB12CC12CD12CEDB7FEB7A182B2823B
:10027000C382D482AA24BB2465010E943C080F904B
:100280000F900F900F90CB011F910F91FF90EF9067
:10029000DF90CF90BF90AF900895AF92BF92CF9272
:1002A000DF92EF92FF920F931F93CF93DF93EC01B6
:1002B0009B0182E0603278070CF048C077FF03C0F2
:1002C00020E030E005C0653B710514F024EB30E020
:1002D00000D000D0B901882777FD8095982F29811B
:1002E000332727FD3095B8E8AB2EB12CA21AB30AFC
:1002F000AA0CBB1CAA0CBB1CCC24B7FCC094DC2CE5
:10030000EA81FF27E7FDF09528E532E02E1B3F0B41
:10031000220F331F220F331F442737FD4095542FE0
:10032000EDB7FEB7218332834383548320E030E06E
:1003300040E050E0E4EBEE2EF12C012D112D0E9457
:100340003C089B010F900F900F900F90CE01B901C8
:100350000E94A700DF91CF911F910F91FF90EF9026
:10036000DF90CF90BF90AF900895CF92DF92EF9241
:10037000FF921F93CF93DF93EC01162F7A0169014F
:1003800088818C3008F064C0862F61E00E940505EA
:10039000888190E0FC01EE0FFF1FE80FF91FE15F7D
:1003A000FE4F1F738081807C812B808380E292E0EE
:1003B0008E199F0964E070E00E94B008698380E6AE
:1003C00099E08C199D0964E070E00E94B0086A838E
:1003D000A8818A2F6CE00E94A408682F70E0AB010E
:1003E000440F551F460F571F440F551F440F551FED
:1003F00020E030E0C901840F951FFC01EE0FFF1FC4
:10040000E80FF91FE15FFE4F808186FD15C02F5F69
:100410003F4F2C30310571F724C01092800082E0EC
:10042000809381001092850010928400B19A80918F
:100430006F00826080936F008A2F90E0FC01EE0FC6
:10044000FF1FE80FF91FE15FFE4F8081806480830A
:100450008881DF91CF911F91FF90EF90DF90CF9037
:100460000895672BD1F2E8CF40E252E020E639E070
:100470000E94B50108951F920F920FB60F9211249A
:100480002F933F934F935F936F937F938F939F939C
:10049000AF93BF93EF93FF938091330187FF05C024
:1004A00010928500109284002BC0209133013327D5
:1004B00027FD309580910E0190E02817390704F54B
:1004C00080913301992787FD9095FC01EE0FFF1F66
:1004D000E80FF91FE15FFE4F808186FF11C0809118
:1004E0003301992787FD9095FC01EE0FFF1FE80F60
:1004F000F91FE15FFE4F80818F7360E00E94250548
:10050000809133018F5F8093330120913301332732
:1005100027FD309580910E0190E0281739070CF0E7
:100520004EC0809133018C300CF049C02091840082
:100530003091850080913301992787FD9095FC01CA
:10054000EE0FFF1FE80FF91FE15FFE4F81819281DF
:10055000280F391F30938900209388008091330140
:10056000992787FD9095FC01EE0FFF1FE80FF91FFB
:10057000E15FFE4F808186FF2AC080913301992779
:1005800087FD9095FC01EE0FFF1FE80FF91FE15F5B
:10059000FE4F80818F7361E00E94250518C080E4C2
:1005A0009CE905C080918400909185000496909309
:1005B0008900809388008FEF8093330108C0809179
:1005C00084009091850084549C4948F3EBCFFF91BF
:1005D000EF91BF91AF919F918F917F916F915F91BB
:1005E0004F913F912F910F900FBE0F901F90189534
:1005F00084E391E00E948D0087E391E00E948D00EA
:100600008AE391E00E948D00089584E391E061E126
:1006100070E00E94340287E391E062E170E00E94A2
:1006200034028AE391E063E170E00E9434020895AD
:100630000F931F938DE060913D010E9425058DEC85
:1006400091E00E94A806882309F447C08DEC91E050
:100650000E94BC068A3A910509F03FC08DEC91E0FA
:100660000E94A8068530D0F38DEC91E00E94BC0674
:1006700004E610E09C01209FC001219F900D309F57
:10068000900D112484589E4F6AE570E00E94B008D6
:10069000609300018DEC91E00E94BC069C01209FBC
:1006A000C001219F900D309F900D11248D5B9B4FB9
:1006B0006BE570E00E94B008609301018DEC91E061
:1006C0000E94BC06809302018DEC91E00E94BC0662
:1006D0008093030181E080933D0184E391E00E94D7
:1006E000E4002091000130E0281739075CF484E32E
:1006F00091E00E94E400BC016150704084E391E00D
:100700000E944D0184E391E00E94E40020910001E9
:1007100030E0821793075CF484E391E00E94E400E8
:10072000BC016F5F7F4F84E391E00E944D0187E33E
:1007300091E00E94E4002091010130E02817390780
:100740005CF487E391E00E94E400BC0161507040DA
:1007500087E391E00E944D0187E391E00E94E4006D
:100760002091010130E0821793075CF487E391E068
:100770000E94E400BC016F5F7F4F87E391E00E941D
:100780004D018AE391E00E94E4002091020130E0F3
:10079000281739075CF48AE391E00E94E400BC0169
:1007A000615070408AE391E00E944D018AE391E03C
:1007B0000E94E4002091020130E0821793075CF46C
:1007C0008AE391E00E94E400BC016F5F7F4F8AE3FF
:1007D00091E00E944D0180913D01813071F584E3EB
:1007E00091E00E94E4002091000130E0821793071D
:1007F00021F587E391E00E94E4002091010130E0BF
:1008000082179307D1F48AE391E00E94E4002091DB
:10081000020130E08217930781F48DEC91E041E012
:1008200050E060E070E020E030E00E942708109285
:100830003D0110923F0110923E016091030170E072
:1008400080E090E00E94A10480913E0190913F01E0
:10085000019690933F0180933E01883C910581F47D
:100860008DEC91E041E050E060E070E020E030E0AD
:100870000E94270810923D0110923F0110923E0104
:100880001F910F9108958DEC91E040E052EC61E0F2
:1008900070E00E94AF058DE061E00E9405050E94B6
:1008A000050308950E94CB040E9443040E9418038C
:1008B000FDCF1F920F920FB60F9211242F933F93EB
:1008C0008F939F93AF93BF93809144019091450183
:1008D000A0914601B0914701309148010196A11DB8
:1008E000B11D232F2D5F2D3720F02D570196A11D0F
:1008F000B11D209348018093440190934501A0933A
:100900004601B09347018091400190914101A0912F
:100910004201B09143010196A11DB11D8093400198
:1009200090934101A0934201B0934301BF91AF91D5
:100930009F918F913F912F910F900FBE0F901F901D
:100940001895EF92FF920F931F937B018C018FB745
:10095000F894409144015091450160914601709195
:1009600047018FBF2FB7F8948091440190914501C2
:10097000A0914601B09147012FBF841B950BA60B98
:10098000B70BE816F9060A071B0760F71F910F91CE
:10099000FF90EF900895789484B5826084BD84B50B
:1009A000816084BD85B5826085BD85B5816085BD6A
:1009B000EEE6F0E0808181608083E1E8F0E0808114
:1009C00082608083808181608083E0E8F0E08081C4
:1009D00081608083E1EBF0E0808184608083E0EBE4
:1009E000F0E0808181608083EAE7F0E080818460CC
:1009F0008083808182608083808181608083808128
:100A0000806880831092C1000895282F30E0C901CA
:100A100086569F4FFC0194912A573F4FF9018491CC
:100A2000882391F0E82FF0E0EE0FFF1FE859FF4F09
:100A3000A591B491662329F48C91909589238C9388
:100A400008958C91892B8C930895482F50E0CA010A
:100A500082559F4FFC012491CA0186569F4FFC018D
:100A600094914A575F4FFA0134913323D1F12223F5
:100A700031F1233021F4809180008F7705C024303C
:100A800031F4809180008F7D8093800018C02130E8
:100A900019F484B58F7704C0223021F484B58F7D9A
:100AA00084BD0DC0263021F48091B0008F7705C041
:100AB000273029F48091B0008F7D8093B000E32F20
:100AC000F0E0EE0FFF1FEE58FF4FA591B4916623A3
:100AD00029F48C91909589238C9308958C91892B7E
:100AE0008C9308951F920F920FB60F9211242F939B
:100AF0003F934F935F936F937F938F939F93AF93A6
:100B0000BF93EF93FF934091C600E091C901F0912C
:100B1000CA01CF01019660E870E00E94B0089C0114
:100B20008091CB019091CC012817390739F0E75B10
:100B3000FE4F40833093CA012093C901FF91EF918A
:100B4000BF91AF919F918F917F916F915F914F91E5
:100B50003F912F910F900FBE0F901F9018955F92AD
:100B60006F927F928F929F92AF92BF92CF92DF92BD
:100B7000EF92FF920F931F93CF93DF93EC013A0113
:100B80004B01413482E458078FE0680780E0780722
:100B90000CF07FC060E874E88EE190E0A40193015E
:100BA0000E94E5082150304040405040CA01B90140
:100BB00022E030E040E050E00E94E50859016A017F
:100BC000A6019501209530954095509594E0220F0F
:100BD000331F441F551F9A95D1F760E074E284EFEC
:100BE00090E00E94E508CA01B9012FEF30E040E033
:100BF00050E00E948508A40193010E94E508C90104
:100C000081509F4F181619061CF4522E5A9403C097
:100C100055245394521A60E079E08DE390E0A401EA
:100C200093010E94E5082150304040405040CA01E5
:100C3000B90122E030E040E050E00E94E508209554
:100C400030954095509583E0220F331F441F551F68
:100C50008A95D1F760E074E284EF90E00E94E508A5
:100C6000CA01B9012FEF30E040E050E00E94850852
:100C7000A40193010E94E508C90181509F4F1816F5
:100C800019061CF4822F815002C081E0821B851559
:100C900000F5E885F98581E090E00A8802C0880FB8
:100CA000991F0A94E2F7808360E079E08DE390E099
:100CB000A40193010E94E50821503040404050407B
:100CC000CA01B90122E030E040E050E00E94E508AE
:100CD00004C0E885F98510829501EC81FD8130839F
:100CE000EE81FF812083EA85FB85208141E050E091
:100CF000CA010E8402C0880F991F0A94E2F7282BBC
:100D00002083EA85FB852081CA010F8402C0880FF9
:100D1000991F0A94E2F7282B2083EA85FB858081BE
:100D2000088802C0440F551F0A94E2F7842B808381
:100D3000DF91CF911F910F91FF90EF90DF90CF90B7
:100D4000BF90AF909F908F907F906F905F9008952D
:100D5000DC011296ED91FC911397E058FF4F8191C1
:100D6000919180589F4F20813181821B930B60E8C5
:100D700070E00E94B0080895CF93DF93DC011296D3
:100D8000ED91FC911397EF01CE57DF4F48815981C8
:100D9000E058FF4F80819181E058F040841795071B
:100DA00019F42FEF3FEF0CC0E40FF51F2081CA01AB
:100DB000019660E870E00E94B0089983888330E073
:100DC000C901DF91CF910895FC01A085B1852189EA
:100DD0008C9190E0022E02C0959587950A94E2F7D7
:100DE00080FFF6CF0484F585E02D6083089588E0C8
:100DF00091E09093CE018093CD0189E491E09093AE
:100E0000D0018093CF0185EC90E09093D201809344
:100E1000D10184EC90E09093D4018093D30180ECD5
:100E200090E09093D6018093D50181EC90E090936F
:100E3000D8018093D70186EC90E09093DA018093FB
:100E4000D90184E08093DB0183E08093DC0187E0BB
:100E50008093DD0185E08093DE0181E08093DF01F6
:100E600008950F931F93CF93DF938C01EB0109C07B
:100E70002196D801ED91FC910190F081E02DC801FF
:100E8000099568816623A1F7DF91CF911F910F919A
:100E90000895EF92FF920F931F93CF93DF938C01EE
:100EA0007B01EA010CC0D7016D917D01D801ED9164
:100EB000FC910190F081E02DC801099521972097C0
:100EC00091F7DF91CF911F910F91FF90EF900895CF
:100ED0002F923F924F925F926F927F928F929F924A
:100EE000AF92BF92CF92DF92EF92FF920F931F9338
:100EF000DF93CF93CDB7DEB7A0970FB6F894DEBFE0
:100F00000FBECDBF1C016A017B0141155105610572
:100F1000710549F4DC01ED91FC910190F081E02D27
:100F200060E3099554C0882499245401422E552425
:100F30006624772401E010E00C0F1D1F080D191D19
:100F4000C701B601A30192010E94C308F8016083A2
:100F50000894811C911CA11CB11CC701B601A301FE
:100F600092010E94C308C901DA016C017D01C1141C
:100F7000D104E104F104F1F681E0E82EF12CEC0E4D
:100F8000FD1EE80CF91C3E010894611C711CD50182
:100F9000C4010197A109B1096C01C818D90814C08E
:100FA000F601EE0DFF1D60816A3010F4605D01C036
:100FB000695CD101ED91FC910190F081E02DC101BE
:100FC00009950894E108F1086E147F0449F7A0968A
:100FD0000FB6F894DEBF0FBECDBFCF91DF911F914A
:100FE0000F91FF90EF90DF90CF90BF90AF909F90C8
:100FF0008F907F906F905F904F903F902F900895CB
:10100000EF92FF920F931F93CF93DF93EC017A013E
:101010008B0177FF0FC0E881F9810190F081E02D0D
:101020006DE2099510950095F094E094E11CF11C97
:10103000011D111DCE01B801A7012AE00E94680719
:10104000DF91CF911F910F91FF90EF900895DC01F8
:101050002115310541F4ED91FC910190F081E02DD5
:10106000642F099508952A30310519F40E9400086B
:1010700008950E94680708952F923F924F925F92C1
:101080006F927F928F929F92AF92BF92CF92DF9298
:10109000EF92FF920F931F93DF93CF93CDB7DEB7FD
:1010A0003B014C0119012A016D897E898F89988D38
:1010B0006A197B098C099D09621A730A840A950AC8
:1010C000A40193010E948508E218F3080409150998
:1010D000A80197010E94E5082A0D3B1D4C1D5D1DCE
:1010E000B901CA01CF91DF911F910F91FF90EF904D
:1010F000DF90CF90BF90AF909F908F907F906F9038
:101100005F904F903F902F900895629FD001739F02
:10111000F001829FE00DF11D649FE00DF11D929F93
:10112000F00D839FF00D749FF00D659FF00D9927D2
:10113000729FB00DE11DF91F639FB00DE11DF91FF6
:10114000BD01CF0111240895991B79E004C0991FB6
:10115000961708F0961B881F7A95C9F78095089511
:1011600097FB092E07260AD077FD04D049D006D078
:1011700000201AF4709561957F4F0895F6F79095C9
:1011800081959F4F0895A1E21A2EAA1BBB1BFD015A
:101190000DC0AA1FBB1FEE1FFF1FA217B307E40756
:1011A000F50720F0A21BB30BE40BF50B661F771FAE
:1011B000881F991F1A9469F760957095809590958E
:1011C0009B01AC01BD01CF01089597FB092E0526B7
:1011D0000ED057FD04D0D7DF0AD0001C38F450954C
:1011E0004095309521953F4F4F4F5F4F0895F6F74B
:1011F00090958095709561957F4F8F4F9F4F089583
:10120000AA1BBB1B51E107C0AA1FBB1FA617B7072C
:1012100010F0A61BB70B881F991F5A95A9F7809548
:101220009095BC01CD010895EE0FFF1F0590F4913C
:08123000E02D0994F894FFCFB2
:0E1238002D2D5A0A00000000E4063107490778
:00000001FF
